:100000000C94E5000C9402010C9402010C94020182
:100010000C9402010C9402010C9402010C94020154
:100020000C9402010C9402010C9402010C94020144
:100030000C9402010C9402010C9402010C94020134
:100040000C9402010C9402010C94F6060C9402012B
:100050000C9402010C9402010C9402010C94020114
:100060000C9402010C9402010C9402010C94020104
:100070000C9402010C9402010C940201084AD73B33
:100080003BCE016E84BCBFFDC12F3D6C74319ABD67
:1000900056833DDA3D00C77F11BED9E4BB4C3E918B
:1000A0006BAAAABE000000803F05A84CCDB2D44E7A
:1000B000B93836A9020C50B9918688083CA6AAAA7C
:1000C0002ABE000000803F6E616E00696E6600000F
:1000D000407A10F35A00A0724E18090010A5D4E817
:1000E0000000E87648170000E40B54020000CA9AAA
:1000F0003B000000E1F505000080969800000040FC
:10010000420F000000A08601000000102700000040
:1001100000E803000000006400000000000A000086
:100120000000000100000000002C76D888DC674F3A
:100130000823DFC1DFAE59E1B1B796E5E3E453C66A
:100140003AE651997696E8E6C28426EB898C9B6262
:10015000ED407C6FFCEFBC9C9F40F2BAA56FA5F40C
:1001600090055A2AF75C936B6CF9676DC11BFCE034
:10017000E40D47FEF520E6B500D0ED902E03009487
:100180003577050080841E080000204E0A0000001C
:10019000C80C333333330F986E12831141EF8D2126
:1001A00014893BE65516CFFEE6DB18D1844B381B8D
:1001B000F77C1D901DA4BBE424203284725E228152
:1001C00000C9F124ECA1E53D270011241FBECFEFAB
:1001D000D0E1DEBFCDBF11E0A0E0B1E0E0E0F5E3AB
:1001E00002C005900D92AE38B107D9F712E0AEE823
:1001F000B1E001C01D92A230B107E1F70E946B058A
:100200000C947E1A0C940000A1E1B0E0EAE0F1E069
:100210000C9496183C017F876E876A01FC01178257
:100220001682838181FD03C06FEF7FEF6FC39E0154
:100230002F5F3F4F398B288BF3012381EE85FF859C
:1002400023FD859123FF8191FF87EE87882309F4A1
:100250005AC3853251F4EE85FF8523FD859123FF36
:100260008191FF87EE87853229F490E0B3010E94E7
:10027000BB19E2CF982F10E0882499241032B0F4F3
:100280009B3269F09C3228F4903251F0933271F431
:100290000BC09D3239F0903349F4116028C01260D0
:1002A000146025C0186023C0106121C017FD2AC04A
:1002B000892F80538A3078F416FF06C0FAE09F9E9B
:1002C000902C1124980E13C03AE0839E802C1124A8
:1002D000880E10620CC09E3221F416FD14C3106407
:1002E00006C09C3611F4106802C0983659F4EE85A9
:1002F000FF8523FD959123FF9191FF87EE87992339
:1003000009F0BCCF892F8554833020F4812F806180
:10031000905E07C0892F8556833008F09FC1812FDA
:100320008F7E86FD02C076E0972E6FE3F62EF822D0
:10033000953619F4F0E4FF2A07C0963619F420E840
:10034000F22A02C091109A94F7FE0AC03BE33915D5
:1003500018F45CE3B52E02C0B92CB39427E009C0B1
:1003600047E0491520F4BB2447E0942EF7CF292D10
:10037000BB24C60104969D878C87F601608171813C
:1003800082819381AE014F5F5F4F0B2D0E94CD188C
:100390006C010981202E332400FF04C003FD02C03C
:1003A0001DE209C0F1FE02C01BE205C0F2FC02C062
:1003B00010E001C010E2C1018C709070892BB9F17E
:1003C000112311F483E001C084E0881510F0882423
:1003D0000AC0881AF3FC07C080E290E0B3010E94D3
:1003E000BB198A94C9F7112329F0812F90E0B3013A
:1003F0000E94BB1923FE03C007EC10E00EC00BECFB
:1004000010E00BC0E114F10409F0805290E0B30158
:100410000E94BB190F5F1F4F05C0EF2CFF24F0E1B6
:10042000EF22FF24F8018491882361F714C1F7FEBD
:1004300012C0BC0C24FE04C08A81813309F4BA9432
:100440001B141CF0BB24B3942DC0F8E0FB1550F531
:1004500038E0B32E27C0F6FC25C0892D90E08C151E
:100460009D054CF02CEFC2162FEFD20624F030E899
:10047000F32A01C09A94992049F0E2E0F0E0EC0FF1
:10048000FD1FE90DF11D80818033A1F3F7FE0AC045
:10049000B92CB394892D90E0C816D90614F099248C
:1004A00001C09C18F7FC03C025E030E009C01C1413
:1004B0001D041CF021E030E003C096012F5F3F4F88
:1004C000112311F02F5F3F4F992029F0892D90E0E3
:1004D0000196280F391F882D90E02817390714F04E
:1004E000882401C0821A4F2C5524C2018970907053
:1004F000892B39F008C080E290E0B3010E94BB195B
:100500008A948820C1F7112329F0812F90E0B3014C
:100510000E94BB1943FE07C008C080E390E0B3010E
:100520000E94BB198A948820C1F7F7FE46C0860155
:10053000D7FE02C000E010E076010894E11CF11C37
:10054000E01AF10A41E050E04C0F5D1FE40EF51E89
:1005500026014B185108892D90E0AA24BB24A81A23
:10056000B90A5FEF0F3F150729F48EE290E0B3015F
:100570000E94BB19C016D10634F0401651061CF477
:10058000F701808101C080E3015010400894E11C14
:10059000F11C0A151B052CF090E0B3010E94BB1959
:1005A000E0CF0C151D0539F49A81963318F4953374
:1005B00011F424FE81E390E04BC08A81813309F07D
:1005C0000F7E90E0B3010E94BB199920A1F08EE24A
:1005D00090E0B3010E94BB1912E0E1E0F0E0EC0F03
:1005E000FD1FE10FF11D1F5F808190E0B3010E94AC
:1005F000BB199A9491F744FC03C085E690E002C0D1
:1006000085E490E0B3010E94BB19D7FC05C0C1147A
:10061000D10441F404FF06C0D094C194D108D3940E
:100620008DE201C08BE290E0B3010E94BB1980E330
:1006300005C08F5F26EF3FEFC20ED31E3AE0C31610
:10064000D104BCF790E0B3010E94BB19C601C0966B
:10065000B3010E94BB19CC84DD8452C1933631F0C2
:10066000933799F0933509F059C023C0F601808182
:1006700089835E010894A11CB11C22E030E0C20E07
:10068000D31E21E0E22EF12C12C0F601A080B18031
:1006900016FD03C06FEF7FEF02C0692D70E022E00E
:1006A00030E0C20ED31EC5010E94B0197C011F7735
:1006B00013C0F601A080B18016FD03C06FEF7FEF7D
:1006C00002C0692D70E022E030E0C20ED31EC501E9
:1006D0000E94A5197C01106813FF07C01BC080E2AF
:1006E00090E0B3010E94BB198A94882D90E0E8162F
:1006F000F906A8F30FC0F50117FD859117FF819149
:100700005F0190E0B3010E94BB1981108A940894A4
:10071000E108F108E114F10471F7F2C0943611F028
:10072000993689F517FF08C0F60120813181428191
:10073000538184E090E00AC0F601808191819C01A0
:10074000442737FD4095542F82E090E0C80ED91E13
:100750009FE6F92EF12257FF09C05095409530953C
:1007600021953F4F4F4F5F4F90E8F92ACA01B901D9
:10077000AE014F5F5F4F2AE030E00E94201AE82E62
:10078000E889EE1A41C0953721F41F7E2AE030E057
:100790001CC0197F9F3661F0903720F4983509F01E
:1007A000B2C00FC0903739F0983709F0ACC004C020
:1007B00028E030E00AC0106114FD146020E130E050
:1007C00004C014FD166020E132E017FF08C0F601F6
:1007D000608171818281938144E050E008C0F6011C
:1007E00080819181BC0180E090E042E050E0C40E45
:1007F000D51EAE014F5F5F4F0E94201AE82E588928
:10080000E51A8FE7F82EF122F6FE0BC08EEFF822E4
:10081000E91438F4F4FE07C0F2FC05C09FEEF9229B
:1008200002C01E2D01C0192DF4FE0DC0FE01EE0DFB
:10083000F11D8081803319F4E9EEFE2208C01F5FAC
:10084000F2FE05C003C08F2D867809F01F5F0F2DC3
:10085000F3FC14C0F0FE0FC0181510F09E2C0BC056
:100860009E2C980C911A182D06C080E290E0B301DE
:100870000E94BB191F5F1815C0F304C0181510F4AF
:10088000811A01C0882404FF0FC080E390E0B30107
:100890000E94BB1902FF1DC001FD03C088E790E064
:1008A0000EC088E590E00BC0802F867891F001FFA4
:1008B00002C08BE201C080E2F7FC8DE290E0B30160
:1008C0000E94BB1906C080E390E0B3010E94BB19EF
:1008D0009A94E914C0F3EA94E1E0F0E0EC0FFD1F14
:1008E000EE0DF11D808190E0B3010E94BB19EE2056
:1008F00091F706C080E290E0B3010E94BB198A9490
:100900008820C1F799CCF30166817781CB0161968C
:10091000E2E10C94B218CF93DF9380E090E060E0C6
:1009200070E00E94800DC0E0D1E022C080918E0175
:1009300090918F012091C2013091C30100D000D06D
:1009400000D0EDB7FEB73196ADB7BEB71296DC93C7
:10095000CE93119793838283358324830E94E71972
:100960008DB79EB706960FB6F8949EBF0FBE8DBF8B
:1009700080918E0190918F0189359105BCF2809113
:100980008E0190918F018C35910584F68091C20182
:100990009091C301893591054CF28091C2019091EB
:1009A000C3018C35910514F688E893E12CEC31E015
:1009B000F9013197F1F70197D9F780E090E00E94B3
:1009C000CB0A81E090E00E94CB0ADF91CF9108959D
:1009D000CF92DF92EF92FF920F931F93DF93CF930B
:1009E000CDB7DEB72C970FB6F894DEBF0FBECDBFE4
:1009F00060E072EC81E090E00E94BB0C0E942D0848
:100A00000E94820C83E090E060E040E40E942708AE
:100A10000E944B12DE011196E0E8F1E086E00190C1
:100A20000D928150E1F780E090E063E070E0098191
:100A30001A812B813C814D815E810E945111DE0122
:100A40001796EAE7F1E086E001900D928150E1F718
:100A500081E090E062E070E00F81188529853A8599
:100A60004B855C850E94511185E540E050E066E9C8
:100A700073E400E010E020E030E00F2EF0E0CF2E35
:100A8000F0E0DF2EF0E2EF2EF1E4FF2EF02D0E94D9
:100A90003F088CE440E050E066E973E400E010E0D9
:100AA00020E030E00E943F0880E090E00E94EC0AE5
:100AB00081E090E00E94EC0A2C960FB6F894DEBF1D
:100AC0000FBECDBFCF91DF911F910F91FF90EF909F
:100AD000DF90CF9008952F923F924F925F926F9246
:100AE0007F928F929F92AF92BF92CF92DF92EF92BE
:100AF000FF920F931F93DF93CF93CDB7DEB72A9763
:100B00000FB6F894DEBF0FBECDBF0E94E8040E946E
:100B10008B0400D089E091E0ADB7BEB712969C93EC
:100B20008E9311970E94E7192091900130919101C5
:100B3000409192015091930129833A834B835C83C6
:100B40004DB75EB7475050400FB6F8945EBF0FBE2A
:100B50004DBFEDB7FEB7319682E4ADB7BEB7119683
:100B60008C931282118282E090E0948383831682B8
:100B7000158281E090E0908787830E94BD10E98014
:100B8000FA800B811C811A861986EDB7FEB739965B
:100B90000FB6F894FEBF0FBEEDBF81E0282E312CBA
:100BA0008091900190919101A0919201B091930157
:100BB00029813A814B815C81821B930BA40BB50B7D
:100BC0000297A105B10508F188E70E945B0B90939D
:100BD000C5018093C40189E70E945B0B9093950146
:100BE000809394018AE70E945B0B9093A901809304
:100BF000A8018091900190919101A0919201B091F2
:100C0000930189839A83AB83BC8300D000D00F9279
:100C1000EDB7FEB7319622E4ADB7BEB711962C936F
:100C200032822182148213820E94980F0F900F90BB
:100C30000F900F900F90892B19F01A8619861CC0FF
:100C400000D000D00F92EDB7FEB7319622E4ADB7D9
:100C5000BEB711962C9332822182348223820E9465
:100C6000980F0F900F900F900F900F90892B21F0FD
:100C700046EA5FEF5A87498789859A8560E070E088
:100C80000E94800D8091900190919101A09192011C
:100C9000B09193018E199F09A00BB10B0A97A10582
:100CA000B10508F47DCF6090C2017090C3014090FF
:100CB0008E0150908F0180E090E00E94CB0B6D83FD
:100CC0007E838F83988781E090E00E94CB0B9B010D
:100CD000AC016091C4017091C501E0909401F09065
:100CE00095018090A8019090A9018DB79EB74A9771
:100CF0000FB6F8949EBF0FBE8DBFCDB6DEB608947A
:100D0000C11CD11CE2E1F1E0ADB7BEB71296FC9375
:100D1000EE93119786EA9FEF680E791ED60113961F
:100D20007C926E921297480E591E15965C924E92C6
:100D300014978D819E81AF81B885F6018683978354
:100D4000A087B187D6011A962D933D934D935C935E
:100D50001D97882777FD8095982F0E94871620EE93
:100D60003DE240E15BE30E94A017F60166877787CA
:100D7000808B918B0027F7FC0095102FC801B701DD
:100D80000E94871620EE3DE240E15BE30E94A0173F
:100D9000D60152966D937D938D939C935597AA247B
:100DA00097FCA094BA2CC501B4010E94871620EECE
:100DB0003DE240E15BE30E94A017F601668B778B72
:100DC000808F918F0E94E719E0909001F09091013F
:100DD00000919201109193012DB73EB7265E3F4FCF
:100DE0000FB6F8943EBF0FBE2DBFDACE1F920F9202
:100DF0000FB60F9211242F933F934F935F936F93EE
:100E00007F938F939F93AF93BF93EF93FF938091C3
:100E1000BE019091BF0101969093BF018093BE01E6
:100E2000099711F58091900190919101A091920103
:100E3000B09193010196A11DB11D809390019093F3
:100E40009101A0939201B093930181E090E090937F
:100E5000BF018093BE018091F6019091F701019648
:100E60009093F7018093F6018091F6019091F7013C
:100E7000099709F04CC081E090E09093F7018093CE
:100E8000F60180E090E00E94081290938F01809319
:100E90008E0181E090E00E9408129093C30180933C
:100EA000C20160918E0170918F0185E50E945E09FB
:100EB0006093F8017093F9018093FA019093FB011C
:100EC0006091C2017091C3018CE40E945E0960933D
:100ED000AA017093AB018093AC019093AD01409156
:100EE000F8015091F9016091FA017091FB0182E0E3
:100EF00090E00E940E0D4091AA015091AB016091CB
:100F0000AC017091AD0181E090E00E940E0DFF9167
:100F1000EF91BF91AF919F918F917F916F915F9171
:100F20004F913F912F910F900FBE0F901F901895EA
:100F30002091780030917900C9010895833091059E
:100F400079F1843091054CF481309105B9F082300B
:100F50009105ECF4892B71F050C08530910591F129
:100F60008530910534F186309105A9F1079709F094
:100F700044C03AC080917C00807E47C080917C0054
:100F8000807E80937C0080917C0081603EC0809157
:100F90007C00807E80937C0080917C00826035C0E4
:100FA00080917C00807E80937C0080917C008360B7
:100FB0002CC080917C00807E80937C0080917C009E
:100FC000846023C080917C00807E80937C0080912F
:100FD0007C0085601AC080917C00807E80937C00BC
:100FE00080917C00866011C080917C00807E80931F
:100FF0007C0080917C00876008C080917C00807EAE
:1010000080937C0080917C008F6180937C000895A8
:101010000E949E0780917A00806480937A0080917C
:101020007A0084FFFCCF2091780030917900C901CB
:101030000895EAE7F0E080818F778083109279004D
:10104000109278008FEF9FEF0E949E07089527E887
:1010500020937A000E949E0708958CE691E0909379
:10106000FF018093FE0160E072EC81E090E00E945D
:10107000311408950E94B30C80E090E008952F92FF
:101080003F924F925F926F927F928F929F92AF9218
:10109000BF92CF92DF92EF92FF920F931F93DF9355
:1010A000CF93CDB7DEB729970FB6F894DEBF0FBE4A
:1010B000CDBF89833A014B0118012901CA82DB8225
:1010C000EC82FD82C701B601A40193010E94EC15D8
:1010D0007B018C012AE037ED43E25CE30E94EC15D2
:1010E0006E837F8388879987C201B101A401930130
:1010F0000E94EC152AE037ED43E25CE30E94A01762
:1011000020E030E040E85FE30E941F152E813F8120
:10111000488559850E941F155B016C01C801B70104
:1011200020E030E040E050EC0E94A0172AE037EDCC
:1011300043E25CE30E94EC1520E030E040E85FE32E
:101140000E941E157B018C0189818C3409F04DC0F1
:101150006092D2017092D3018092D4019092D50115
:101160002092D6013092D7014092D8015092D901F5
:101170008A819B81AC81BD818093DA019093DB01F0
:10118000A093DC01B093DD01C501D6018093EA0193
:101190009093EB01A093EC01B093ED01C701D8014E
:1011A0008093EE019093EF01A093F001B093F101D1
:1011B0008E819F81A885B9858093F2019093F30178
:1011C000A093F401B093F5011092B2011092B30113
:1011D0001092B4011092B5011092BD011092BC01A1
:1011E0001092B9011092B80150C09981953509F05B
:1011F0004CC06092C6017092C7018092C801909263
:10120000C9012092CA013092CB014092CC01509288
:10121000CD018A819B81AC81BD818093CE01909369
:10122000CF01A093D001B093D101C501D601809325
:10123000DE019093DF01A093E001B093E101C701CB
:10124000D8018093E2019093E301A093E401B0936D
:10125000E5018E819F81A885B9858093E6019093F1
:10126000E701A093E801B093E9011092AE0110925A
:10127000AF011092B0011092B1011092BB01109217
:10128000BA011092B7011092B60129960FB6F894E0
:10129000DEBF0FBECDBFCF91DF911F910F91FF90A9
:1012A000EF90DF90CF90BF90AF909F908F907F9006
:1012B0006F905F904F903F902F9008952F923F92A4
:1012C0004F925F926F927F928F929F92AF92EF9226
:1012D000FF920F931F93DF93CF93CDB7DEB72E9777
:1012E0000FB6F894DEBF0FBECDBFA82ECB0125E50B
:1012F000A21629F46091C0017091C10107C03CE4BD
:10130000A31621F46091960170919701DB01A81B4F
:10131000B90BB887AF83CD0101968330910528F4CE
:1013200020E030E040E050E0FEC0B5E5AB16C9F586
:101330008091C6019091C701A091C801B091C901E7
:1013400089839A83AB83BC836091AE017091AF01B6
:101350008091B0019091B101A091B601B091B70117
:10136000BE87AD87E091BA01F091BB01FE83ED83AA
:10137000E090DE01F090DF010091E0011091E101C9
:101380006090E2017090E3018090E4019090E501AB
:101390002090E6013090E7014090E8015090E9018B
:1013A0003BC0FCE4AF16C1F58091D2019091D3010E
:1013B000A091D401B091D50189839A83AB83BC837A
:1013C0006091B2017091B3018091B4019091B50127
:1013D000A091B801B091B901BE87AD87E091BC0181
:1013E000F091BD01FE83ED83E090EA01F090EB0106
:1013F0000091EC011091ED016090EE017090EF0111
:101400008090F0019090F1012090F2013090F30172
:101410004090F4015090F5010E94871669877A8701
:101420008B879C872F813885B901882777FD809528
:10143000982F0E9487169B01AC01C801B7010E943A
:10144000A0177B018C01AD85BE85BD01882777FD86
:101450008095982F0E9487169B01AC01C401B301AF
:101460000E94A0179B01AC01C801B7010E941F1583
:101470007B018C01ED81FE81BF01882777FD80957E
:10148000982F0E9487169B01AC01C201B1010E94F6
:10149000A0179B01AC01C801B7010E941F159B0159
:1014A000AC0169817A818B819C810E94A0179B018C
:1014B000AC0169857A858B859C850E941F150E94E9
:1014C00054169B01AC01F5E5AF16B9F48091B60155
:1014D0009091B7019093BB018093BA018F81988559
:1014E0009093B7018093B6012093AE013093AF0182
:1014F0004093B0015093B10116C08091B801909112
:10150000B9019093BD018093BC01AF81B885B093C0
:10151000B901A093B8012093B2013093B301409375
:10152000B4015093B501B901CA012E960FB6F894D3
:10153000DEBF0FBECDBFCF91DF911F910F91FF9006
:10154000EF90AF909F908F907F906F905F904F90B3
:101550003F902F900895853529F47093C1016093D1
:10156000C00108958C3421F4709397016093960123
:101570000895853529F42091C0013091C10109C039
:101580008C3419F020E030E004C0209196013091B5
:101590009701C9010895009719F00197E1F40EC071
:1015A000809128008F7D8093280080E20E94A60C05
:1015B00080912800806280932800089580912800FF
:1015C0008F7E8093280080E20E94A60C80912800E4
:1015D00080618093280008959C018091270080629B
:1015E0008093270080912700806180932700211538
:1015F000310529F02130310509F05CC02EC0809101
:1016000028008F7D8093280080E20E94A60C8091A4
:101610002800806280932800809128008F7D80932D
:10162000280088E80E94A60C83E00E94A60C809106
:101630002800806280932800809128008F7D80930D
:10164000280080E90E94A60C80E00E94A60C8091F0
:1016500028008062809328000895809128008F7E62
:101660008093280080E20E94A60C8091280080616F
:1016700080932800809128008F7E8093280088E83E
:101680000E94A60C83E00E94A60C80912800806135
:1016900080932800809128008F7E8093280080E925
:1016A0000E94A60C80E00E94A60C80912800806118
:1016B000809328000895EF92FF920F931F93082FB5
:1016C000F8948CB583608CBD80912A0080688093EB
:1016D0002A0080912B008F7780932B008CE60E944C
:1016E000A60C80E00E94A60CE82E80E00E94A60CCA
:1016F000F82E80912B00806880932B0080912B0026
:101700008F7780932B000A3589F00B3528F4083544
:1017100049F0093571F408C0093731F00A3731F062
:10172000083739F480E603C084E601C088E60E94E9
:10173000A60C80E00E94A60C082F80E00E94A60C58
:10174000482F80912B00806880932B008CB58C7F74
:101750008CBD789442954F7050E010E0E4E0000FAB
:10176000111FEA95E1F7402B512BF2947FE0F7220D
:101770002F2D30E08E2D90E064E0880F991F6A9540
:10178000E1F7282B392B421B530BCA011F910F91F4
:10179000FF90EF9008956F927F928F929F92AF92F9
:1017A000BF92CF92DF92EF92FF920F931F93009719
:1017B00021F0019709F088C040C0809128008F7DFA
:1017C0008093280080E60E94A60C80E00E94A60C70
:1017D000682E80E00E94A60CE82E80E00E94A60CF5
:1017E000A82E80E00E94A60C772488249924562DE8
:1017F000442733272227FF2400E010E08701FF243D
:10180000EE242E293F29402B512B90E0A0E0B0E0A0
:10181000282B392B4A2B5B2BBB24CC24DD24DC2C3E
:10182000CB2CBA2CAA242A293B294C295D2980914A
:10183000280080628093280056C0809128008F7E07
:101840008093280080E60E94A60C80E00E94A60CEF
:10185000E82E80E00E94A60CA82E80E00E94A60C34
:10186000682E80E00E94A60CFF2400E010E01E2DF0
:101870000027FF24EE24BB24CC24DD246501BB24F7
:10188000AA24EA28FB280C291D2990E0A0E0B0E05A
:10189000E82AF92A0A2B1B2B772488249924982CD0
:1018A000872C762C6624E628F728082919298091A8
:1018B000280080618093280022273327A9012E1950
:1018C0003F09400B510B0FC000D08BE291E0EDB708
:1018D000FEB7928381830E94E71920E030E040E068
:1018E00050E00F900F90B901CA011F910F91FF9026
:1018F000EF90DF90CF90BF90AF909F908F907F90B0
:101900006F900895809124008062809324008091DC
:1019100024008F7B80932400809124008068809332
:1019200024008091240080618093240080912A000B
:10193000806180932A0080912B00806180932B002E
:101940008CB51CBC8CB580658CBD08958EBD0DB466
:1019500007FEFDCF8EB508958091C80087FFFCCFAC
:101960008091CE000895982F8091C80085FFFCCF0C
:101970009093CE0008959B01AC0164E0220F331FC9
:10198000441F551F6A95D1F760E070E489E191E04A
:101990000E947418C901DA010197A109B109292F20
:1019A0003A2F4B2F55270196A11DB11D2093CD0035
:1019B00081508093CC0088E18093C9008EE08093B1
:1019C000CA0008958130910519F0029749F403C0C7
:1019D00080E090E002C081E090E00E9408089C0155
:1019E0002E513240B901882777FD8095982F0E94AB
:1019F000871620E030E040E85AE30E94A01720E07C
:101A000030E44CE955E40E94A0170E9454169B0153
:101A1000AC01309521953F4FC9010895EF92FF9297
:101A20000F931F937A018B01403020E1520720E091
:101A3000620720E072073CF03FEFE32E3FE0F32E19
:101A4000012D112D10C0413020EF52072FEF6207FA
:101A50002FEF720744F421E0E22E20EFF22E2FEF59
:101A6000022F2FEF122F8130910519F0029791F577
:101A700017C017FD08C080E090E0B7010E94A414D1
:101A800081E090E016C080E090E060E070E00E94AD
:101A9000A414662777276E197F0981E090E018C0AB
:101AA00017FD0AC083E090E0B7010E94A41482E011
:101AB00090E060E070E00CC083E090E060E070E0F7
:101AC0000E94A414662777276E197F0982E090E0B0
:101AD0000E94A4141F910F91FF90EF90089581E050
:101AE00090E040E050E060E070E00E940E0D82E087
:101AF00090E040E050E060E070E00E940E0D08953C
:101B00000F931F938C01665A7F4F85E50E94AB0AA5
:101B1000065A1F4F8CE4B8010E94AB0A1F910F9127
:101B200008952F923F924F925F926F927F928F9281
:101B30009F92AF92BF92CF92DF92EF92FF920F935C
:101B40001F93DF93CF93CDB7DEB72F970FB6F894DF
:101B5000DEBF0FBECDBF7F876E87AA2797FDA095FA
:101B6000BA2FBC01CD010E9487166A877B878C87BC
:101B70009D879B01AC010E94A0177B018C012E85E3
:101B80003F85B901882777FD8095982F0E94871699
:101B90003B014C01A40193010E94A0179B01AC01E1
:101BA000C801B7010E941F1524E833E745EB56E44E
:101BB0000E941E1521E339E243E456E40E941E15FB
:101BC00023E730E145E057E40E94EC155B016C012E
:101BD000A60195010E94A0179B01AC0160E070E096
:101BE00080E89FE30E941E150E940D187B018C0166
:101BF000A60195010E9492151B012C0117FB10955F
:101C000017F91095C801B701A60195010E94921518
:101C100069837A838B839C83C401B3012A853B85C6
:101C20004C855D850E9492156E837F838887998796
:101C3000C201B1010E9403187B018C01C201B101F4
:101C40000E94E9155B016C01C801B7012FE135E87D
:101C50004FED52E40E94A0177B018C01C601B50133
:101C60002FE135E84FED52E40E94A01726E636E654
:101C700048E153E40E941F159B01AC01C801B70164
:101C80000E9492153B014C0169817A818B819C8174
:101C90000E9403187B018C0169817A818B819C8170
:101CA0000E94E9155B016C01C801B7012FE135E81D
:101CB0004FED52E40E94A0177B018C01C601B501D3
:101CC0002FE135E84FED52E40E94A01726E636E6F4
:101CD00048E153E40E941F159B01AC01C801B70104
:101CE0000E9492157B018C016E817F818885998588
:101CF000A40193010E941E1521EE3EE245E652E446
:101D00000E94A0173B014C01C201B10121EE3EE24D
:101D100045E652E40E94A0175B016C016E817F8151
:101D200088859985A80197010E941E1521EE3EE243
:101D300045E652E40E94A0177B018C0169817A81FB
:101D40008B819C8121EE3EE245E652E40E94A01781
:101D50001B012C01C401B30120E030E044EB52EC44
:101D60000E94951788230CF492C01D82C401B30110
:101D700020E030E044EB52E40E94E51518160CF424
:101D800066C031E03D83C601B50120E030E044EBA0
:101D900052EC0E94951788230CF459C0C601B50176
:101DA00020E030E044EB52E40E94E51518160CF4F4
:101DB0004EC0C801B70120E030E044EB52EC0E9475
:101DC000951788230CF446C0C801B70120E030E025
:101DD00044EB52E40E94E51518160CF43BC0C20116
:101DE000B10120E030E044EB52EC0E9495178823CB
:101DF0008CF1C201B10120E030E044EB52E40E94DA
:101E0000E51518163CF18E859F85181619067CF08D
:101E1000C401B301A60195010E941E1520E030E027
:101E200040E050E00E949517882344F558C0C40153
:101E3000B301A60195010E941E1520E030E040E0AC
:101E400050E00E94E51518160CF449C017C09D819A
:101E50009923E9F0C601B50120E030E044EB52ECF3
:101E60000E94951788239CF0C601B50120E030E060
:101E700044EB52E40E94E51518164CF0C401B3017E
:101E80000E9454167B018C01C601B50130C0C80107
:101E9000B70120E030E044EB52EC0E949517882314
:101EA00074F1C801B70120E030E044EB52E40E9435
:101EB000E515181624F1C201B10120E030E044EB31
:101EC00052EC0E9495178823D4F0C201B10120E0A2
:101ED00030E044EB52E40E94E515181684F0C80186
:101EE000B7010E9454167B018C01C201B1010E940E
:101EF00054169B01AC01C701B9010E94800D2F96B9
:101F00000FB6F894DEBF0FBECDBFCF91DF911F910A
:101F10000F91FF90EF90DF90CF90BF90AF909F9088
:101F20008F907F906F905F904F903F902F9008958B
:101F30001F93DF93CF93CDB7DEB78E816F81788506
:101F4000DE011996823469F0833418F4813489F4FF
:101F500005C0833449F0843461F409C0E0E2F0E064
:101F600008C0E3E2F0E005C0E6E2F0E002C0E9E22A
:101F7000F0E020E030E040E050E011E061C08D9101
:101F80009C9111978330910559F1843091054CF45F
:101F900081309105C9F082309105E4F4892B71F00C
:101FA0004CC08530910541F185309105FCF08630BB
:101FB000910541F1079709F040C02DC0808181272C
:101FC00090E08170907037C0808181FD1EC082E0FA
:101FD00090E031C0808182FD18C084E090E02BC089
:101FE000808183FD12C088E090E025C0808184FD5F
:101FF0000CC080E190E01FC0808185FD06C080E2BA
:1020000090E019C0808186FF03C080E090E013C09B
:1020100080E490E010C080818823992787FD909507
:10202000809590958827990F881F99279695982FC6
:10203000882797958795282B392B12964F5F5F4FEE
:10204000461757070CF49BCFC901CF91DF911F9121
:102050000895CF92DF92EF92FF920F931F93DF9339
:10206000CF93CDB7DEB78B859C85CE84DF84DE0130
:102070005096823469F0833418F4813489F405C0B1
:10208000833449F0843461F409C0E2E2F0E008C02E
:10209000E5E2F0E005C0E8E2F0E002C0EBE2F0E0EB
:1020A00040E050E0292F2170E22EEE0CEE0CEE0CF9
:1020B000F22EF294FF0C80EEF822022F0295007FA0
:1020C000122F1295110F110F107C792F779577270A
:1020D0007795622F660F322F330F330F41C08D91EA
:1020E0009C9111978330910521F1843091054CF436
:1020F00081309105B1F082309105BCF4892B69F0F3
:102100002CC085309105E9F085309105B4F086301A
:102110009105D9F0079709F51CC080818E7F822B2D
:102120001BC080818D7F862B17C080818B7F832B86
:1021300013C08081877F8E290FC080818F7E802B86
:102140000BC080818F7D8F2907C080818F7B812B81
:1021500003C080818F77872B808312964F5F5F4FFC
:102160004C155D050CF4BBCFCF91DF911F910F9102
:10217000FF90EF90DF90CF900895CF92DF92EF9293
:10218000FF920F931F93DF93CF93CDB7DEB78B856D
:102190009C85CE84DF84DE015096823469F08334DE
:1021A00018F4813489F405C0833449F0843461F42F
:1021B00009C0E1E2F0E008C0E4E2F0E005C0E7E2D7
:1021C000F0E002C0EAE2F0E040E050E0292F2170A8
:1021D000E22EEE0CEE0CEE0CF22EF294FF0C30EE32
:1021E000F322022F0295007F122F1295110F110F6B
:1021F000107C792F779577277795622F660F322F8E
:10220000330F330F41C08D919C911197833091050D
:1022100021F1843091054CF481309105B1F0823088
:102220009105BCF4892B69F02CC085309105E9F04B
:1022300085309105B4F086309105D9F0079709F5FE
:102240001CC080818E7F822B1BC080818D7F862B5E
:1022500017C080818B7F832B13C08081877F8E295D
:102260000FC080818F7E802B0BC080818F7D8F2956
:1022700007C080818F7B812B03C080818F77872B64
:10228000808312964F5F5F4F4C155D050CF4BBCFFA
:10229000CF91DF911F910F91FF90EF90DF90CF9042
:1022A0000895EF92FF920F931F93DF93CF9300D087
:1022B00000D000D0CDB7DEB77C01DB0109831A83E3
:1022C0004D835E8349815A816D817E81FC0123E0CB
:1022D000EE0FFF1F2A95E1F728E931E0E20FF31F27
:1022E000B383A28393E0EE0CFF1C9A95E1F7F9010A
:1022F000EE0DFF1D5183408384E090E0E80EF91E4F
:10230000E20EF31E641B750B882777FD8095982FCE
:102310000E9487169B01AC0160E070E084E393E4C7
:102320000E94EC15F7016083718382839383269664
:102330000FB6F894DEBF0FBECDBFCF91DF911F91D6
:102340000F91FF90EF900895FC0133E0EE0FFF1F17
:102350003A95E1F7E656FE4F808191810E94080888
:10236000AA2797FDA095BA2FBC01CD010E94871620
:1023700020E030EC4FE754E40E94EC1520E030E41C
:102380004CE955E40E94A0170E945416CB01089511
:10239000CF92DF92EF92FF920F931F938C01FC017B
:1023A00073E0EE0FFF1F7A95E1F768E9E62E61E032
:1023B000F62EEE0DFF1D828193810E94080853E0E6
:1023C000000F111F5A95E1F70C5F1F4F6701C00EF8
:1023D000D11E04501040E00EF11EF7012081318122
:1023E000821B930BAA2797FDA095BA2FBC01CD01A4
:1023F0000E948716F60120813181428153810E941B
:10240000A0171F910F91FF90EF90DF90CF9008954C
:10241000CF92DF92EF92FF920F931F938C01FC01FA
:10242000B3E0EE0FFF1FBA95E1F7A8E9EA2EA1E0AD
:10243000FA2EEE0DFF1D828193810E940808F3E0C1
:10244000000F111FFA95E1F70C5F1F4F6701C00ED7
:10245000D11E04501040E00EF11EF70120813181A1
:10246000821B930BAA2797FDA095BA2FBC01CD0123
:102470000E948716F60120813181428153810E949A
:10248000A0170E945416CB011F910F91FF90EF905F
:10249000DF90CF900895789414BC82E085BD81E0F0
:1024A00080936E0008958130910561F0823091052E
:1024B000A1F0892BE1F485B5887F85BD85B5862B94
:1024C00085BD089580918100887F809381008091EF
:1024D0008100862B8093810008958091B100887FD0
:1024E0008093B1008091B100862B8093B100089554
:1024F000813039F0813018F0823079F40AC067BD3C
:102500000895709389006093880082E080936F0043
:1025100008956093B3008093700008958130910511
:1025200069F08230910599F1892B09F058C014BCEB
:1025300082E085BD81E080936E00089580918100E6
:10254000897F8093810080918100816080938100E8
:102550006115710521F062307105A1F404C080910C
:1025600080008C7F08C08091800081608093800013
:1025700080918000826080938000809181008B7FB9
:102580008093810081E0BA010E94781208958091C1
:10259000B100897F8093B1008091B1008160809308
:1025A000B1006115710521F062307105A1F404C01C
:1025B0008091B0008C7F08C08091B0008E7F8093A6
:1025C000B0008091B00082608093B0008091B10033
:1025D0008B7F8093B10082E0BA010E947812089547
:1025E000AF92BF92CF92DF92EF92FF920F931F9321
:1025F000CF93DF935C017A018B01009729F082E091
:10260000A816B10409F05BC0C801B7012DEC3CEC81
:102610004CE052E40E94951788235CF0C801B70192
:1026200020E030EA4CE056E40E94E51518160CF064
:10263000B3C0C801B70120E030EA4CE053E40E9487
:10264000951788235CF0C801B70120E030EA4CE020
:1026500057E40E94E51518160CF098C0C801B701A0
:1026600020E030EA4CE054E40E94951788235CF0A7
:10267000C801B70120E030EA4CE058E40E94E515BB
:1026800018160CF08FC0C801B70120E030EA4CE802
:1026900055E40E94951788235CF0C801B70120E03B
:1026A00030EA4CE859E40E94E51518160CF080C099
:1026B000C801B70120E030EA4CE057E458C0CB0134
:1026C000BA0127E339E841E85EE30E9495178823C1
:1026D0005CF0C801B70120E030EA4CE056E40E940B
:1026E000E51518160CF058C0C801B7012EEA37E4FA
:1026F00041E85FE30E94951788235CF0C801B701A9
:1027000020E030EA4CE057E40E94E51518160CF082
:102710003DC0C801B7012EEA37E441E850E40E9409
:102720009517882354F0C801B70120E030EA4CE047
:1027300058E40E94E5151816ACF5C801B7012CE560
:102740003FE841E052E40E949517882354F0C80105
:10275000B70120E030EA4CE859E40E94E51518166C
:102760003CF5C801B7012CE53FE841E853E40E947D
:10277000951788231CF1C801B70120E030EA4CE02E
:102780005BE40E94E5151816F4F418C054E0C52E59
:10279000D12CC0E0D1E01CC045E0C42ED12CC0E05B
:1027A000D4E016C033E0C32ED12CC0E4D0E010C07A
:1027B00022E0C22ED12CC8E0D0E00AC0CC24DD2417
:1027C000C0E0D0E005C091E0C92ED12CC1E0D0E03E
:1027D00000D000D089E391E0EDB7FEB7928381830A
:1027E000D483C3830E94E719CC0FDD1FBE01882765
:1027F00077FD8095982F0E948716A80197010E9467
:10280000A0179B01AC0160E074E284EF9AE40E949F
:10281000EC150E9454167B018C010894E108F10824
:1028200089E491E0EDB7FEB792838183F482E3827D
:102830000E94E7190F900F900F900F90C501B601FD
:102840000E9453128A2DB7010E947812DF91CF9116
:102850001F910F91FF90EF90DF90CF90BF90AF90BE
:1028600008959B01AC0184E0220F331F441F551FC4
:102870008A95D1F760E070E489E191E00E947418D4
:10288000215030403093C5002093C40088E18093EC
:10289000C10086E08093C2000895982F8091C00007
:1028A00085FFFCCF9093C6000895FC0107C080917E
:1028B000C00085FFFCCF9093C6003196908199238C
:1028C000B1F708950F931F93DF93CF93CDB7DEB782
:1028D00064970FB6F894DEBF0FBECDBF2DB73EB7DD
:1028E000285030400FB6F8943EBF0FBE2DBFEDB755
:1028F000FEB731968E010F5F1F4FADB7BEB7129670
:102900001C930E93119728E531E03383228395833E
:102910008483778366830E94FC192DB73EB7285FB6
:102920003F4F0FB6F8943EBF0FBE2DBFC8010E94A7
:10293000551464960FB6F894DEBF0FBECDBFCF918D
:10294000DF911F910F9108950F931F93CF93DF9302
:10295000EC018B018DB79EB707970FB6F8949EBF19
:102960000FBE8DBFEDB7FEB7319684E4ADB7BEB7ED
:1029700011968C931282118281E090E0948383837C
:1029800084E090E0968385830E9429108DB79EB7DE
:1029900007960FB6F8949EBF0FBE8DBFC130D1050C
:1029A00079F0C230D1051CF4CD2B39F011C0C23002
:1029B000D10549F0239761F409C080E390E008C095
:1029C00081E390E005C082E390E002C083E390E001
:1029D0000E94A60CC80124E0959587952A95E1F7F9
:1029E0000E94A60C802F8295807F0E94A60CADB716
:1029F000BEB717970FB6F894BEBF0FBEADBFEDB709
:102A0000FEB7319684E411968C9381E090E0928336
:102A100081839483838384E090E0968385830E94FE
:102A200029108DB79EB707960FB6F8949EBF0FBEBC
:102A30008DBFDF91CF911F910F9108955058BB2703
:102A4000AA270ED027C2F0D130F0F5D120F031F412
:102A50009F3F11F41EF4C0C10EF4E095E7FBB6C130
:102A6000E92F3AD280F3BA176207730784079507F4
:102A700018F071F49EF552C20EF4E0950B2EBA2FA9
:102A8000A02D0B01B90190010C01CA01A001112474
:102A9000FF27591B99F0593F50F4503E68F11A1620
:102AA000F040A22F232F342F4427585FF3CF4695B1
:102AB00037952795A795F0405395C9F77EF41F16D3
:102AC000BA0B620B730B840BBAF09150A1F0FF0F9D
:102AD000BB1F661F771F881FC2F70EC0BA0F621F89
:102AE000731F841F48F4879577956795B795F79579
:102AF0009E3F08F0B3CF9395880F08F09927EE0F0B
:102B000097958795089590D158F080E891E009F461
:102B10009EEF91D128F040E851E059F45EEF09C0F2
:102B20005BC1FCC1E92FE078D7D168F3092E052AF3
:102B3000C1F3261737074807590738F00E2E07F854
:102B4000E02569F0E025E0640AC0EF6307F800942F
:102B500007FADB01B9019D01DC01CA01AD01EF9368
:102B60004AD098D10AD05F91552331F02BED3FE048
:102B700049E450FD49EC63CF0895DF93DD27B92F79
:102B8000BF7740E85FE31616170648075B0710F4A7
:102B9000D92FCFD19F938F937F936F937CD2ECE704
:102BA000F0E01DD177D12F913F914F915F91D4D11A
:102BB000DD2349F09058A2EA2AED3FE049EC5FE3BB
:102BC000D0785D274DDFDF9165C1DCD008F481E06E
:102BD000089539D1E3956FC10CD05CC12CD140F080
:102BE00023D130F021F45F3F19F0F0C0511197C1AB
:102BF000F3C072D198F39923C9F35523B1F3951B10
:102C0000550BBB27AA2762177307840738F09F5F0D
:102C10005F4F220F331F441FAA1FA9F333D00E2E7C
:102C20003AF0E0E830D091505040E695001CCAF7E9
:102C300029D0FE2F27D0660F771F881FBB1F2617AE
:102C400037074807AB07B0E809F0BB0B802DBF0181
:102C5000FF2793585F4F2AF09E3F510568F0B6C09A
:102C60005EC15F3FECF3983EDCF386957795679500
:102C7000B795F7959F5FC9F7880F911D9695879532
:102C800097F90895E1E0660F771F881FBB1F621751
:102C900073078407BA0720F0621B730B840BBA0B0F
:102CA000EE1F88F7E095089504D06894B11137C1FC
:102CB00008951AD188F09F5790F0B92F9927B751EE
:102CC000A0F0D1F0660F771F881F991F1AF0BA95F0
:102CD000C9F712C0B13081F021D1B1E008951EC111
:102CE000672F782F8827B85F39F0B93FCCF38695E6
:102CF00077956795B395D9F73EF490958095709543
:102D000061957F4F8F4F9F4F0895E89409C097FBBF
:102D10003EF490958095709561957F4F8F4F9F4FB2
:102D20009923A9F0F92F96E9BB279395F6958795F6
:102D300077956795B795F111F8CFFAF4BB0F11F4B9
:102D400060FF1BC06F5F7F4F8F4F9F4F16C0882360
:102D500011F096E911C0772321F09EE8872F762F96
:102D600005C0662371F096E8862F70E060E02AF0D7
:102D70009A95660F771F881FDAF7880F96958795C3
:102D800097F90895990F0008550FAA0BE0E8FEEF98
:102D900016161706E807F907C0F012161306E4071F
:102DA000F50798F0621B730B840B950B39F40A2618
:102DB00061F0232B242B252B21F408950A2609F4F6
:102DC000A140A6958FEF811D811D089597F99F67FA
:102DD00080E870E060E008959FEF80EC0895DF9355
:102DE000CF931F930F93FF92EF92DF927B018C01A1
:102DF000689405C0DA2EEF01AFD0FE01E894A591EA
:102E00002591359145915591AEF3EF0129DEFE01F3
:102E10009701A801DA9479F7DF90EF90FF900F9176
:102E20001F91CF91DF91089500240A94161617067A
:102E300018060906089500240A94121613061406AB
:102E400005060895C9CF50D0E8F3E894E0E0BB2729
:102E50009F57F0F02AED3FE049EC06C0EE0FBB0FA4
:102E6000661F771F881F28F0B23A6207730784072E
:102E700028F0B25A620B730B840BE3959A9572F7A4
:102E8000803830F49A95BB0F661F771F881FD2F7E2
:102E9000904806C1092E0394000C11F4882352F0C7
:102EA000BB0F40F4BF2B11F460FF04C06F5F7F4F76
:102EB0008F4F9F4F0895EF93E0FF06C0A2EA2AEDDF
:102EC0003FE049EC5FEBCCDDE5DF0F90039401FCC4
:102ED0009058E9EAF0E0F7C057FD9058440F551FAD
:102EE00059F05F3F71F04795880F97FB991F61F08C
:102EF0009F3F79F087950895121613061406551F03
:102F0000F2CF4695F1DF08C0161617061806991F6E
:102F1000F1CF86957105610508940895E894BB2763
:102F200066277727CB0197F908952CDF08F48FEFF8
:102F300008959B01AC0160E070E080E89FE34CCE17
:102F40000BD0A8CF71DF28F076DF18F0952309F0B9
:102F50003DCF42CF1124E3CFBFDFA0F3959FD1F344
:102F6000950F50E0551F629FF001729FBB27F00D37
:102F7000B11D639FAA27F00DB11DAA1F649F66278C
:102F8000B00DA11D661F829F2227B00DA11D621FDB
:102F9000739FB00DA11D621F839FA00D611D221F95
:102FA000749F3327A00D611D231F849F600D211D79
:102FB000822F762F6A2F11249F5750408AF0E1F01C
:102FC00088234AF0EE0FFF1FBB1F661F771F881F65
:102FD00091505040A9F79E3F510570F0F7CE9FCF1A
:102FE0005F3FECF3983EDCF3869577956795B79550
:102FF000F795E7959F5FC1F7FE2B880F911D96957A
:10300000879597F908959F931EDF0F9007FCEE5F59
:1030100052CF11F40EF4E0CE41C066DFD0F3992315
:10302000D9F3CEF39F57550B87FF46D00024A0E677
:1030300040EA900180585695979528F4805C660F79
:10304000771F881F20F026173707480730F4621BC8
:10305000730B840B202931294A2BA69517940794CA
:10306000202531254A2758F7660F771F881F20F043
:1030700026173707480730F4620B730B840B200DBB
:10308000311D411DA09581F7B901842F9158880FFA
:103090009695879508959B01AC0152CF9F3F31F0E3
:1030A000915020F4879577956795B795880F911D76
:1030B0009695879597F9089591505040660F771F20
:1030C000881FD2F708959F938F937F936F93FF93F9
:1030D000EF939B01AC0134DFEF91FF9180DE2F91E4
:1030E0003F914F915F912CCFA1E21A2EAA1BBB1BDF
:1030F000FD010DC0AA1FBB1FEE1FFF1FA217B307C4
:10310000E407F50720F0A21BB30BE40BF50B661FD9
:10311000771F881F991F1A9469F76095709580959D
:1031200090959B01AC01BD01CF0108952F923F9274
:103130004F925F926F927F928F929F92AF92BF92C7
:10314000CF92DF92EF92FF920F931F93CF93DF9373
:10315000CDB7DEB7CA1BDB0B0FB6F894DEBF0FBED0
:10316000CDBF09942A88398848885F846E847D841D
:103170008C849B84AA84B984C884DF80EE80FD801F
:103180000C811B81AA81B981CE0FD11D0FB6F89495
:10319000DEBF0FBECDBFED010895283008F027E057
:1031A0003327DA01990F311D87FD91600096610583
:1031B000710539F432602E5F3D9330E32A95E1F7D3
:1031C00008959F3F30F080387105610509F03C5F3C
:1031D0003C5F3D93913008F08068911DDF93CF9361
:1031E0001F930F93FF92EF92192F987F9695E92FD7
:1031F00096959695E90FFF27E75DFE4F99273327B0
:10320000EE24FF24A701E70105900894079428F411
:10321000360FE71EF81E491F511D660F771F881FC6
:10322000991F0694A1F70590079428F4E70EF81E5D
:10323000491F561FC11D770F881F991F661F0694CF
:10324000A1F70590079428F4F80E491F561FC71FD1
:10325000D11D880F991F661F771F0694A1F705904F
:10326000079420F4490F561FC71FD81F990F661FD8
:10327000771F881F0694A9F784911095177041F065
:10328000D695C79557954795F794E7941A95C1F742
:10329000EFECF0E06894159015913591659195915A
:1032A00005907FE27395E118F10A430B560BC90BA9
:1032B000D009C0F7E10CF11E431F561FC91FD01DD6
:1032C0007EF4703311F48A95E6CFE894015030F023
:1032D000080F0AF40027021708F4202F2395022F65
:1032E0007A3328F079E37D932A95E9F710C07D932E
:1032F0002A9589F6069497956795379517951794AB
:10330000E118F10A430B560BC90BD00998F023952D
:103310007E9173957A3308F070E37C932013B8F7AD
:103320007E9170617D9330F0839571E37D9370E3BE
:103330002A95E1F71124EF90FF900F911F91CF9103
:10334000DF91992787FD90950895FC0105906150C4
:1033500070400110D8F7809590958E0F9F1F0895AB
:10336000FC016150704001900110D8F78095909554
:103370008E0F9F1F08950F931F93CF93DF938C01A0
:10338000EB018B8181FF1BC082FF0DC02E813F812D
:103390008C819D812817390764F4E881F9810193B4
:1033A000F983E88306C0E885F985802F0995892B84
:1033B00031F48E819F8101969F838E8302C00FEF2F
:1033C0001FEFC801DF91CF911F910F910895A0E0E9
:1033D000B0E0EDEEF9E10C94A618FE01359661918E
:1033E00071918091FE019091FF01AF010E94040153
:1033F0002096E2E00C94C218AEE0B0E0E2E0FAE120
:103400000C94A4180D891E8986E08C831A83098385
:103410008FEF9FE79E838D839E01275E3F4FCE01F6
:1034200001966F89788DA9010E9404012F8138854A
:10343000020F131FF80110822E96E4E00C94C018BE
:10344000FA01AA27283051F1203181F1E8946F93D5
:103450006E7F6E5F7F4F8F4F9F4FAF4FB1E03ED07B
:10346000B4E03CD0670F781F891F9A1FA11D680F19
:10347000791F8A1F911DA11D6A0F711D811D911D4C
:10348000A11D20D009F468943F912AE0269F1124C1
:103490003019305D3193DEF6CF010895462F477025
:1034A000405D4193B3E00FD0C9F7F6CF462F4F7080
:1034B000405D4A3318F0495D31FD4052419302D0DE
:1034C000A9F7EACFB4E0A695979587957795679584
:1034D000BA95C9F700976105710508959B01AC0184
:1034E0000A2E06945795479537952795BA95C9F7AB
:1034F000620F731F841F951FA01D0895F894FFCFBE
:1035000025642C2025640A0D00486F6D65642E0A21
:103510000D0025642C25642C256C642C256C642CF2
:1035200025662C25662C25660A0D005961206675D6
:10353000636B65642075702E005072657363616CF7
:1035400065723A2025640A0D00436F6D70617265E3
:103550003A202523580A0D00536574736572766FFF
:103560002825642C25303364290A0D000000000250
:10357000000000003A0800000000FF009C024C041C
:0E358000FA007102CF0335FA8E3CE12E65424F
:00000001FF
